{"src/CBAMRegistry.sol":{"CBAMRegistry":{"abi":[{"inputs":[],"stateMutability":"nonpayable","type":"constructor"},{"anonymous":false,"inputs":[{"indexed":true,"internalType":"string","name":"shipmentId","type":"string"},{"indexed":false,"internalType":"string","name":"exporter","type":"string"},{"indexed":false,"internalType":"uint256","name":"totalCO2Kg","type":"uint256"},{"indexed":false,"internalType":"uint256","name":"cbamTaxEurCents","type":"uint256"},{"indexed":false,"internalType":"address","name":"recordedBy","type":"address"},{"indexed":false,"internalType":"uint256","name":"timestamp","type":"uint256"}],"name":"EmissionRecorded","type":"event"},{"inputs":[{"internalType":"uint256","name":"","type":"uint256"}],"name":"allShipmentIds","outputs":[{"internalType":"string","name":"","type":"string"}],"stateMutability":"view","type":"function"},{"inputs":[{"internalType":"string","name":"_shipmentId","type":"string"}],"name":"getEmission","outputs":[{"internalType":"string","name":"exporter","type":"string"},{"internalType":"string","name":"product","type":"string"},{"internalType":"uint256","name":"weightTonnes","type":"uint256"},{"internalType":"uint256","name":"totalCO2Kg","type":"uint256"},{"internalType":"uint256","name":"cbamTaxEurCents","type":"uint256"},{"internalType":"uint256","name":"etsPriceEurCents","type":"uint256"},{"internalType":"string","name":"originPort","type":"string"},{"internalType":"string","name":"destinationPort","type":"string"},{"internalType":"address","name":"recordedBy","type":"address"},{"internalType":"uint256","name":"timestamp","type":"uint256"}],"stateMutability":"view","type":"function"},{"inputs":[{"internalType":"uint256","name":"count","type":"uint256"}],"name":"getRecentShipmentIds","outputs":[{"internalType":"string[]","name":"","type":"string[]"}],"stateMutability":"view","type":"function"},{"inputs":[],"name":"getRecordCount","outputs":[{"internalType":"uint256","name":"","type":"uint256"}],"stateMutability":"view","type":"function"},{"inputs":[],"name":"owner","outputs":[{"internalType":"address","name":"","type":"address"}],"stateMutability":"view","type":"function"},{"inputs":[],"name":"recordCount","outputs":[{"internalType":"uint256","name":"","type":"uint256"}],"stateMutability":"view","type":"function"},{"inputs":[{"internalType":"string","name":"_shipmentId","type":"string"},{"internalType":"string","name":"_exporter","type":"string"},{"internalType":"string","name":"_product","type":"string"},{"internalType":"uint256","name":"_weightTonnes","type":"uint256"},{"internalType":"uint256","name":"_totalCO2Kg","type":"uint256"},{"internalType":"uint256","name":"_cbamTaxEurCents","type":"uint256"},{"internalType":"uint256","name":"_etsPriceEurCents","type":"uint256"},{"internalType":"string","name":"_originPort","type":"string"},{"internalType":"string","name":"_destinationPort","type":"string"}],"name":"recordEmission","outputs":[],"stateMutability":"nonpayable","type":"function"},{"inputs":[{"internalType":"string","name":"","type":"string"}],"name":"records","outputs":[{"internalType":"string","name":"shipmentId","type":"string"},{"internalType":"string","name":"exporter","type":"string"},{"internalType":"string","name":"product","type":"string"},{"internalType":"uint256","name":"weightTonnes","type":"uint256"},{"internalType":"uint256","name":"totalCO2Kg","type":"uint256"},{"internalType":"uint256","name":"cbamTaxEurCents","type":"uint256"},{"internalType":"uint256","name":"etsPriceEurCents","type":"uint256"},{"internalType":"string","name":"originPort","type":"string"},{"internalType":"string","name":"destinationPort","type":"string"},{"internalType":"address","name":"recordedBy","type":"address"},{"internalType":"uint256","name":"timestamp","type":"uint256"},{"internalType":"bool","name":"exists","type":"bool"}],"stateMutability":"view","type":"function"},{"inputs":[{"internalType":"string","name":"_shipmentId","type":"string"}],"name":"verifyRecord","outputs":[{"internalType":"bool","name":"exists","type":"bool"},{"internalType":"uint256","name":"timestamp","type":"uint256"},{"internalType":"address","name":"recordedBy","type":"address"}],"stateMutability":"view","type":"function"}],"evm":{"bytecode":{"linkReferences":{},"object":"6080806040523461002b57600080546001600160a01b0319163317815560015561122090816100318239f35b600080fdfe6080604052600436101561001257600080fd5b60003560e01c80630e920e6714610dfb578063541e771d14610c995780635b6c7c1e1461042e5780637792d35f146103c957806388512699146101dd5780638da5cb5b146101b4578063900407bc1461007f578063c40e5824146100a25763ca267f281461007f57600080fd5b3461009d57600036600319011261009d576020600154604051908152f35b600080fd5b3461009d57602036600319011261009d576004356001600160401b03811161009d5761016060206100d960609336906004016110e2565b919082604051938492833781016002815203019020604051906100fb82610f7f565b6101048161103c565b82526101126001820161103c565b60208301526101236002820161103c565b604083015260038101548483015260048101546080830152600581015460a0830152600681015460c083015261015b6007820161103c565b60e083015261016c6008820161103c565b61010083015260018060a01b03600982015416918261012082015260ff600b600a84015493846101408501520154161515938491015260405192835260208301526040820152f35b3461009d57600036600319011261009d576000546040516001600160a01b039091168152602090f35b3461009d57602036600319011261009d576004356001600160401b03811161009d5761020d9036906004016110e2565b9060ff600b6040518484823760208186810160028152030190200154161561039157602090826040519384928337810160028152030190206101406040519161025583610f7f565b61025e8161103c565b835261026c6001820161103c565b602084015261027d6002820161103c565b60408401526003810154606084015260048101546080840152600581015460a0840152600681015460c08401526102b66007820161103c565b60e08401526102c76008820161103c565b908161010085015261038060018060a01b03600983015416928361012087015260ff600b600a8501549485888a015201541615156101608701526103726020870151966040810151606082015191608081015160a08201519061035060e060c0850151940151946103426040519e8f9e8f8181520190610f5a565b8d810360208f015290610f5a565b9460408c015260608b015260808a015260a089015287820360c0890152610f5a565b9085820360e0870152610f5a565b916101008401526101208301520390f35b60405162461bcd60e51b815260206004820152601060248201526f149958dbdc99081b9bdd08199bdd5b9960821b6044820152606490fd5b3461009d57602036600319011261009d5760043560035481101561009d576103f09061110f565b610418576104006104149161103c565b604051918291602083526020830190610f5a565b0390f35b634e487b7160e01b600052600060045260246000fd5b3461009d5761012036600319011261009d576004356001600160401b03811161009d5761045f9036906004016110e2565b6024356001600160401b03811161009d5761047e9036906004016110e2565b9190926044356001600160401b03811161009d576104a09036906004016110e2565b9060e4356001600160401b03811161009d576104c09036906004016110e2565b90610104356001600160401b03811161009d576104e19036906004016110e2565b9290938715610c5d5760ff600b6040518a8a823760028b8201526020818c810103019020015416610c20576040519561051987610f7f565b610524368a8a610fbc565b8752610531368b8d610fbc565b6020880152369061054192610fbc565b60408601526064356060860152608435608086015260a43560a086015260c43560c0860152369061057192610fbc565b60e0840152369061058192610fbc565b6101008201523361012082015242610140820152600161016082015260405183838237808481016002815203602001902081518051906001600160401b03821161099b5781906105db826105d58654611002565b8661115c565b602090601f8311600114610bb457600092610ba9575b50508160011b916000199060031b1c19161781555b60208201518051906001600160401b03821161099b5781906106388261062f6001870154611002565b6001870161115c565b602090601f8311600114610b3757600092610b2c575b50508160011b916000199060031b1c19161760018201555b60408201518051906001600160401b03821161099b5781906106988261068f6002870154611002565b6002870161115c565b602090601f8311600114610aba57600092610aaf575b50508160011b916000199060031b1c19161760028201555b606082015160038201556080820151600482015560a0820151600582015560c0820151600682015560e08201518051906001600160401b03821161099b578190610720826107176007870154611002565b6007870161115c565b602090601f8311600114610a3d57600092610a32575b50508160011b916000199060031b1c19161760078201555b6101008201518051906001600160401b03821161099b5761077f826107766008860154611002565b6008860161115c565b602090601f83116001146109bc5791806101609492600b946000926109b1575b50508160011b916000199060031b1c19161760088201555b6009810160018060a01b03610120860151166bffffffffffffffffffffffff60a01b825416179055610140840151600a82015501910151151560ff801983541691161790556003546801000000000000000081101561099b57806001610820920160035561110f565b610418576001600160401b03831161099b57610846836108408354611002565b8361115c565b6000601f841160011461090c579183917f3608742147360757d9df021edac8c347a5e035b88f7ee8f34aabd848f351887a959460c094600091610901575b508360011b906000198560031b1c19161790555b6108a36001546111b0565b600155816040519283928337810160008152039020938260405193849260a084528160a0850152848401376000828201840152608435602083015260a4356040830152336060830152426080830152601f01601f19168101030190a2005b905082013588610884565b8160005260206000209060005b601f198616811061098357509160c0939185937f3608742147360757d9df021edac8c347a5e035b88f7ee8f34aabd848f351887a9796601f19811610610969575b5050600183811b019055610898565b830135600019600386901b60f8161c19169055878061095a565b90916020600181928588013581550193019101610919565b634e487b7160e01b600052604160045260246000fd5b015190508a8061079f565b906008840160005260206000209160005b601f1985168110610a1a5750926101609492600192600b9583601f19811610610a01575b505050811b0160088201556107b7565b015160001960f88460031b161c191690558a80806109f1565b919260206001819286850151815501940192016109cd565b015190508880610736565b9250600784016000526020600020906000935b601f1984168510610a94576001945083601f19811610610a7b575b505050811b01600782015561074e565b015160001960f88460031b161c19169055888080610a6b565b81810151835560209485019460019093019290910190610a50565b0151905088806106ae565b9250600284016000526020600020906000935b601f1984168510610b11576001945083601f19811610610af8575b505050811b0160028201556106c6565b015160001960f88460031b161c19169055888080610ae8565b81810151835560209485019460019093019290910190610acd565b01519050888061064e565b9250600184016000526020600020906000935b601f1984168510610b8e576001945083601f19811610610b75575b505050811b016001820155610666565b015160001960f88460031b161c19169055888080610b65565b81810151835560209485019460019093019290910190610b4a565b0151905088806105f1565b9250836000526020600020906000935b601f1984168510610c05576001945083601f19811610610bec575b505050811b018155610606565b015160001960f88460031b161c19169055888080610bdf565b81810151835560209485019460019093019290910190610bc4565b60405162461bcd60e51b81526020600482015260156024820152745265636f726420616c72656164792065786973747360581b6044820152606490fd5b60405162461bcd60e51b815260206004820152601460248201527314da1a5c1b595b9d081251081c995c5d5a5c995960621b6044820152606490fd5b3461009d57602036600319011261009d576004356001600160401b03811161009d573660238201121561009d573681600401359160240191610cda92610fbc565b6040518181809351602081930191610cf192610f37565b810160028152036020019020610d068161103c565b610d126001830161103c565b91610d1f6002820161103c565b60038201549160048101549260058201549060068301549060078401610d449061103c565b91610d516008860161103c565b93600160a01b6001900360098701541697600a87015496600b015460ff16976040519b8c9b8c6101808091528d01610d8891610f5a565b8c810360208e0152610d9991610f5a565b8b810360408d0152610daa91610f5a565b9360608b015260808a015260a089015260c088015286810360e0880152610dd091610f5a565b858103610100870152610de291610f5a565b9261012085015261014084015215156101608301520390f35b3461009d5760208060031936011261009d5760035460043581811115610f325750805b610e27816111bf565b91610e356040519384610f9b565b818352601f19610e44836111bf565b018460005b828110610f2357505050600019818101929180841160005b848110610ec657604080518981528851818b01819052600092600582901b83018101918b8d01918d9085015b828710610e9a5785850386f35b909192938280610eb6600193603f198a82030186528851610f5a565b9601920196019592919092610e8d565b81610f0d57838184030190868211610f0d57610eed610ee7610f089361110f565b5061103c565b610ef7828a6111d6565b52610f0281896111d6565b506111b0565b610e61565b634e487b7160e01b600052601160045260246000fd5b60608682018301528101610e49565b610e1e565b60005b838110610f4a5750506000910152565b8181015183820152602001610f3a565b90602091610f7381518092818552858086019101610f37565b601f01601f1916010190565b61018081019081106001600160401b0382111761099b57604052565b90601f801991011681019081106001600160401b0382111761099b57604052565b9291926001600160401b03821161099b5760405191610fe5601f8201601f191660200184610f9b565b82948184528183011161009d578281602093846000960137010152565b90600182811c92168015611032575b602083101461101c57565b634e487b7160e01b600052602260045260246000fd5b91607f1691611011565b906040519182600082549261105084611002565b9081845260019485811690816000146110bf575060011461107c575b505061107a92500383610f9b565b565b9093915060005260209081600020936000915b8183106110a757505061107a9350820101388061106c565b8554888401850152948501948794509183019161108f565b91505061107a94506020925060ff191682840152151560051b820101388061106c565b9181601f8401121561009d578235916001600160401b03831161009d576020838186019501011161009d57565b6003548110156111465760036000527fc2575a0e9e593c00f959f8c92f12db2869c3395a3b0502d05e2516446f71f85b0190600090565b634e487b7160e01b600052603260045260246000fd5b90601f811161116a57505050565b600091825260208220906020601f850160051c830194106111a6575b601f0160051c01915b82811061119b57505050565b81815560010161118f565b9092508290611186565b6000198114610f0d5760010190565b6001600160401b03811161099b5760051b60200190565b80518210156111465760209160051b01019056fea2646970667358221220701d9e0c1d29299f8182290ac97e4b1d3a5b1283955d1d947356374fe5d9f93964736f6c63430008130033","opcodes":"PUSH1 0x80 DUP1 PUSH1 0x40 MSTORE CALLVALUE PUSH2 0x2B JUMPI PUSH1 0x0 DUP1 SLOAD PUSH1 0x1 PUSH1 0x1 PUSH1 0xA0 SHL SUB NOT AND CALLER OR DUP2 SSTORE PUSH1 0x1 SSTORE PUSH2 0x1220 SWAP1 DUP2 PUSH2 0x31 DUP3 CODECOPY RETURN JUMPDEST PUSH1 0x0 DUP1 REVERT INVALID PUSH1 0x80 PUSH1 0x40 MSTORE PUSH1 0x4 CALLDATASIZE LT ISZERO PUSH2 0x12 JUMPI PUSH1 0x0 DUP1 REVERT JUMPDEST PUSH1 0x0 CALLDATALOAD PUSH1 0xE0 SHR DUP1 PUSH4 0xE920E67 EQ PUSH2 0xDFB JUMPI DUP1 PUSH4 0x541E771D EQ PUSH2 0xC99 JUMPI DUP1 PUSH4 0x5B6C7C1E EQ PUSH2 0x42E JUMPI DUP1 PUSH4 0x7792D35F EQ PUSH2 0x3C9 JUMPI DUP1 PUSH4 0x88512699 EQ PUSH2 0x1DD JUMPI DUP1 PUSH4 0x8DA5CB5B EQ PUSH2 0x1B4 JUMPI DUP1 PUSH4 0x900407BC EQ PUSH2 0x7F JUMPI DUP1 PUSH4 0xC40E5824 EQ PUSH2 0xA2 JUMPI PUSH4 0xCA267F28 EQ PUSH2 0x7F JUMPI PUSH1 0x0 DUP1 REVERT JUMPDEST CALLVALUE PUSH2 0x9D JUMPI PUSH1 0x0 CALLDATASIZE PUSH1 0x3 NOT ADD SLT PUSH2 0x9D JUMPI PUSH1 0x20 PUSH1 0x1 SLOAD PUSH1 0x40 MLOAD SWAP1 DUP2 MSTORE RETURN JUMPDEST PUSH1 0x0 DUP1 REVERT JUMPDEST CALLVALUE PUSH2 0x9D JUMPI PUSH1 0x20 CALLDATASIZE PUSH1 0x3 NOT ADD SLT PUSH2 0x9D JUMPI PUSH1 0x4 CALLDATALOAD PUSH1 0x1 PUSH1 0x1 PUSH1 0x40 SHL SUB DUP2 GT PUSH2 0x9D JUMPI PUSH2 0x160 PUSH1 0x20 PUSH2 0xD9 PUSH1 0x60 SWAP4 CALLDATASIZE SWAP1 PUSH1 0x4 ADD PUSH2 0x10E2 JUMP JUMPDEST SWAP2 SWAP1 DUP3 PUSH1 0x40 MLOAD SWAP4 DUP5 SWAP3 DUP4 CALLDATACOPY DUP2 ADD PUSH1 0x2 DUP2 MSTORE SUB ADD SWAP1 KECCAK256 PUSH1 0x40 MLOAD SWAP1 PUSH2 0xFB DUP3 PUSH2 0xF7F JUMP JUMPDEST PUSH2 0x104 DUP2 PUSH2 0x103C JUMP JUMPDEST DUP3 MSTORE PUSH2 0x112 PUSH1 0x1 DUP3 ADD PUSH2 0x103C JUMP JUMPDEST PUSH1 0x20 DUP4 ADD MSTORE PUSH2 0x123 PUSH1 0x2 DUP3 ADD PUSH2 0x103C JUMP JUMPDEST PUSH1 0x40 DUP4 ADD MSTORE PUSH1 0x3 DUP2 ADD SLOAD DUP5 DUP4 ADD MSTORE PUSH1 0x4 DUP2 ADD SLOAD PUSH1 0x80 DUP4 ADD MSTORE PUSH1 0x5 DUP2 ADD SLOAD PUSH1 0xA0 DUP4 ADD MSTORE PUSH1 0x6 DUP2 ADD SLOAD PUSH1 0xC0 DUP4 ADD MSTORE PUSH2 0x15B PUSH1 0x7 DUP3 ADD PUSH2 0x103C JUMP JUMPDEST PUSH1 0xE0 DUP4 ADD MSTORE PUSH2 0x16C PUSH1 0x8 DUP3 ADD PUSH2 0x103C JUMP JUMPDEST PUSH2 0x100 DUP4 ADD MSTORE PUSH1 0x1 DUP1 PUSH1 0xA0 SHL SUB PUSH1 0x9 DUP3 ADD SLOAD AND SWAP2 DUP3 PUSH2 0x120 DUP3 ADD MSTORE PUSH1 0xFF PUSH1 0xB PUSH1 0xA DUP5 ADD SLOAD SWAP4 DUP5 PUSH2 0x140 DUP6 ADD MSTORE ADD SLOAD AND ISZERO ISZERO SWAP4 DUP5 SWAP2 ADD MSTORE PUSH1 0x40 MLOAD SWAP3 DUP4 MSTORE PUSH1 0x20 DUP4 ADD MSTORE PUSH1 0x40 DUP3 ADD MSTORE RETURN JUMPDEST CALLVALUE PUSH2 0x9D JUMPI PUSH1 0x0 CALLDATASIZE PUSH1 0x3 NOT ADD SLT PUSH2 0x9D JUMPI PUSH1 0x0 SLOAD PUSH1 0x40 MLOAD PUSH1 0x1 PUSH1 0x1 PUSH1 0xA0 SHL SUB SWAP1 SWAP2 AND DUP2 MSTORE PUSH1 0x20 SWAP1 RETURN JUMPDEST CALLVALUE PUSH2 0x9D JUMPI PUSH1 0x20 CALLDATASIZE PUSH1 0x3 NOT ADD SLT PUSH2 0x9D JUMPI PUSH1 0x4 CALLDATALOAD PUSH1 0x1 PUSH1 0x1 PUSH1 0x40 SHL SUB DUP2 GT PUSH2 0x9D JUMPI PUSH2 0x20D SWAP1 CALLDATASIZE SWAP1 PUSH1 0x4 ADD PUSH2 0x10E2 JUMP JUMPDEST SWAP1 PUSH1 0xFF PUSH1 0xB PUSH1 0x40 MLOAD DUP5 DUP5 DUP3 CALLDATACOPY PUSH1 0x20 DUP2 DUP7 DUP2 ADD PUSH1 0x2 DUP2 MSTORE SUB ADD SWAP1 KECCAK256 ADD SLOAD AND ISZERO PUSH2 0x391 JUMPI PUSH1 0x20 SWAP1 DUP3 PUSH1 0x40 MLOAD SWAP4 DUP5 SWAP3 DUP4 CALLDATACOPY DUP2 ADD PUSH1 0x2 DUP2 MSTORE SUB ADD SWAP1 KECCAK256 PUSH2 0x140 PUSH1 0x40 MLOAD SWAP2 PUSH2 0x255 DUP4 PUSH2 0xF7F JUMP JUMPDEST PUSH2 0x25E DUP2 PUSH2 0x103C JUMP JUMPDEST DUP4 MSTORE PUSH2 0x26C PUSH1 0x1 DUP3 ADD PUSH2 0x103C JUMP JUMPDEST PUSH1 0x20 DUP5 ADD MSTORE PUSH2 0x27D PUSH1 0x2 DUP3 ADD PUSH2 0x103C JUMP JUMPDEST PUSH1 0x40 DUP5 ADD MSTORE PUSH1 0x3 DUP2 ADD SLOAD PUSH1 0x60 DUP5 ADD MSTORE PUSH1 0x4 DUP2 ADD SLOAD PUSH1 0x80 DUP5 ADD MSTORE PUSH1 0x5 DUP2 ADD SLOAD PUSH1 0xA0 DUP5 ADD MSTORE PUSH1 0x6 DUP2 ADD SLOAD PUSH1 0xC0 DUP5 ADD MSTORE PUSH2 0x2B6 PUSH1 0x7 DUP3 ADD PUSH2 0x103C JUMP JUMPDEST PUSH1 0xE0 DUP5 ADD MSTORE PUSH2 0x2C7 PUSH1 0x8 DUP3 ADD PUSH2 0x103C JUMP JUMPDEST SWAP1 DUP2 PUSH2 0x100 DUP6 ADD MSTORE PUSH2 0x380 PUSH1 0x1 DUP1 PUSH1 0xA0 SHL SUB PUSH1 0x9 DUP4 ADD SLOAD AND SWAP3 DUP4 PUSH2 0x120 DUP8 ADD MSTORE PUSH1 0xFF PUSH1 0xB PUSH1 0xA DUP6 ADD SLOAD SWAP5 DUP6 DUP9 DUP11 ADD MSTORE ADD SLOAD AND ISZERO ISZERO PUSH2 0x160 DUP8 ADD MSTORE PUSH2 0x372 PUSH1 0x20 DUP8 ADD MLOAD SWAP7 PUSH1 0x40 DUP2 ADD MLOAD PUSH1 0x60 DUP3 ADD MLOAD SWAP2 PUSH1 0x80 DUP2 ADD MLOAD PUSH1 0xA0 DUP3 ADD MLOAD SWAP1 PUSH2 0x350 PUSH1 0xE0 PUSH1 0xC0 DUP6 ADD MLOAD SWAP5 ADD MLOAD SWAP5 PUSH2 0x342 PUSH1 0x40 MLOAD SWAP15 DUP16 SWAP15 DUP16 DUP2 DUP2 MSTORE ADD SWAP1 PUSH2 0xF5A JUMP JUMPDEST DUP14 DUP2 SUB PUSH1 0x20 DUP16 ADD MSTORE SWAP1 PUSH2 0xF5A JUMP JUMPDEST SWAP5 PUSH1 0x40 DUP13 ADD MSTORE PUSH1 0x60 DUP12 ADD MSTORE PUSH1 0x80 DUP11 ADD MSTORE PUSH1 0xA0 DUP10 ADD MSTORE DUP8 DUP3 SUB PUSH1 0xC0 DUP10 ADD MSTORE PUSH2 0xF5A JUMP JUMPDEST SWAP1 DUP6 DUP3 SUB PUSH1 0xE0 DUP8 ADD MSTORE PUSH2 0xF5A JUMP JUMPDEST SWAP2 PUSH2 0x100 DUP5 ADD MSTORE PUSH2 0x120 DUP4 ADD MSTORE SUB SWAP1 RETURN JUMPDEST PUSH1 0x40 MLOAD PUSH3 0x461BCD PUSH1 0xE5 SHL DUP2 MSTORE PUSH1 0x20 PUSH1 0x4 DUP3 ADD MSTORE PUSH1 0x10 PUSH1 0x24 DUP3 ADD MSTORE PUSH16 0x149958DBDC99081B9BDD08199BDD5B99 PUSH1 0x82 SHL PUSH1 0x44 DUP3 ADD MSTORE PUSH1 0x64 SWAP1 REVERT JUMPDEST CALLVALUE PUSH2 0x9D JUMPI PUSH1 0x20 CALLDATASIZE PUSH1 0x3 NOT ADD SLT PUSH2 0x9D JUMPI PUSH1 0x4 CALLDATALOAD PUSH1 0x3 SLOAD DUP2 LT ISZERO PUSH2 0x9D JUMPI PUSH2 0x3F0 SWAP1 PUSH2 0x110F JUMP JUMPDEST PUSH2 0x418 JUMPI PUSH2 0x400 PUSH2 0x414 SWAP2 PUSH2 0x103C JUMP JUMPDEST PUSH1 0x40 MLOAD SWAP2 DUP3 SWAP2 PUSH1 0x20 DUP4 MSTORE PUSH1 0x20 DUP4 ADD SWAP1 PUSH2 0xF5A JUMP JUMPDEST SUB SWAP1 RETURN JUMPDEST PUSH4 0x4E487B71 PUSH1 0xE0 SHL PUSH1 0x0 MSTORE PUSH1 0x0 PUSH1 0x4 MSTORE PUSH1 0x24 PUSH1 0x0 REVERT JUMPDEST CALLVALUE PUSH2 0x9D JUMPI PUSH2 0x120 CALLDATASIZE PUSH1 0x3 NOT ADD SLT PUSH2 0x9D JUMPI PUSH1 0x4 CALLDATALOAD PUSH1 0x1 PUSH1 0x1 PUSH1 0x40 SHL SUB DUP2 GT PUSH2 0x9D JUMPI PUSH2 0x45F SWAP1 CALLDATASIZE SWAP1 PUSH1 0x4 ADD PUSH2 0x10E2 JUMP JUMPDEST PUSH1 0x24 CALLDATALOAD PUSH1 0x1 PUSH1 0x1 PUSH1 0x40 SHL SUB DUP2 GT PUSH2 0x9D JUMPI PUSH2 0x47E SWAP1 CALLDATASIZE SWAP1 PUSH1 0x4 ADD PUSH2 0x10E2 JUMP JUMPDEST SWAP2 SWAP1 SWAP3 PUSH1 0x44 CALLDATALOAD PUSH1 0x1 PUSH1 0x1 PUSH1 0x40 SHL SUB DUP2 GT PUSH2 0x9D JUMPI PUSH2 0x4A0 SWAP1 CALLDATASIZE SWAP1 PUSH1 0x4 ADD PUSH2 0x10E2 JUMP JUMPDEST SWAP1 PUSH1 0xE4 CALLDATALOAD PUSH1 0x1 PUSH1 0x1 PUSH1 0x40 SHL SUB DUP2 GT PUSH2 0x9D JUMPI PUSH2 0x4C0 SWAP1 CALLDATASIZE SWAP1 PUSH1 0x4 ADD PUSH2 0x10E2 JUMP JUMPDEST SWAP1 PUSH2 0x104 CALLDATALOAD PUSH1 0x1 PUSH1 0x1 PUSH1 0x40 SHL SUB DUP2 GT PUSH2 0x9D JUMPI PUSH2 0x4E1 SWAP1 CALLDATASIZE SWAP1 PUSH1 0x4 ADD PUSH2 0x10E2 JUMP JUMPDEST SWAP3 SWAP1 SWAP4 DUP8 ISZERO PUSH2 0xC5D JUMPI PUSH1 0xFF PUSH1 0xB PUSH1 0x40 MLOAD DUP11 DUP11 DUP3 CALLDATACOPY PUSH1 0x2 DUP12 DUP3 ADD MSTORE PUSH1 0x20 DUP2 DUP13 DUP2 ADD SUB ADD SWAP1 KECCAK256 ADD SLOAD AND PUSH2 0xC20 JUMPI PUSH1 0x40 MLOAD SWAP6 PUSH2 0x519 DUP8 PUSH2 0xF7F JUMP JUMPDEST PUSH2 0x524 CALLDATASIZE DUP11 DUP11 PUSH2 0xFBC JUMP JUMPDEST DUP8 MSTORE PUSH2 0x531 CALLDATASIZE DUP12 DUP14 PUSH2 0xFBC JUMP JUMPDEST PUSH1 0x20 DUP9 ADD MSTORE CALLDATASIZE SWAP1 PUSH2 0x541 SWAP3 PUSH2 0xFBC JUMP JUMPDEST PUSH1 0x40 DUP7 ADD MSTORE PUSH1 0x64 CALLDATALOAD PUSH1 0x60 DUP7 ADD MSTORE PUSH1 0x84 CALLDATALOAD PUSH1 0x80 DUP7 ADD MSTORE PUSH1 0xA4 CALLDATALOAD PUSH1 0xA0 DUP7 ADD MSTORE PUSH1 0xC4 CALLDATALOAD PUSH1 0xC0 DUP7 ADD MSTORE CALLDATASIZE SWAP1 PUSH2 0x571 SWAP3 PUSH2 0xFBC JUMP JUMPDEST PUSH1 0xE0 DUP5 ADD MSTORE CALLDATASIZE SWAP1 PUSH2 0x581 SWAP3 PUSH2 0xFBC JUMP JUMPDEST PUSH2 0x100 DUP3 ADD MSTORE CALLER PUSH2 0x120 DUP3 ADD MSTORE TIMESTAMP PUSH2 0x140 DUP3 ADD MSTORE PUSH1 0x1 PUSH2 0x160 DUP3 ADD MSTORE PUSH1 0x40 MLOAD DUP4 DUP4 DUP3 CALLDATACOPY DUP1 DUP5 DUP2 ADD PUSH1 0x2 DUP2 MSTORE SUB PUSH1 0x20 ADD SWAP1 KECCAK256 DUP2 MLOAD DUP1 MLOAD SWAP1 PUSH1 0x1 PUSH1 0x1 PUSH1 0x40 SHL SUB DUP3 GT PUSH2 0x99B JUMPI DUP2 SWAP1 PUSH2 0x5DB DUP3 PUSH2 0x5D5 DUP7 SLOAD PUSH2 0x1002 JUMP JUMPDEST DUP7 PUSH2 0x115C JUMP JUMPDEST PUSH1 0x20 SWAP1 PUSH1 0x1F DUP4 GT PUSH1 0x1 EQ PUSH2 0xBB4 JUMPI PUSH1 0x0 SWAP3 PUSH2 0xBA9 JUMPI JUMPDEST POP POP DUP2 PUSH1 0x1 SHL SWAP2 PUSH1 0x0 NOT SWAP1 PUSH1 0x3 SHL SHR NOT AND OR DUP2 SSTORE JUMPDEST PUSH1 0x20 DUP3 ADD MLOAD DUP1 MLOAD SWAP1 PUSH1 0x1 PUSH1 0x1 PUSH1 0x40 SHL SUB DUP3 GT PUSH2 0x99B JUMPI DUP2 SWAP1 PUSH2 0x638 DUP3 PUSH2 0x62F PUSH1 0x1 DUP8 ADD SLOAD PUSH2 0x1002 JUMP JUMPDEST PUSH1 0x1 DUP8 ADD PUSH2 0x115C JUMP JUMPDEST PUSH1 0x20 SWAP1 PUSH1 0x1F DUP4 GT PUSH1 0x1 EQ PUSH2 0xB37 JUMPI PUSH1 0x0 SWAP3 PUSH2 0xB2C JUMPI JUMPDEST POP POP DUP2 PUSH1 0x1 SHL SWAP2 PUSH1 0x0 NOT SWAP1 PUSH1 0x3 SHL SHR NOT AND OR PUSH1 0x1 DUP3 ADD SSTORE JUMPDEST PUSH1 0x40 DUP3 ADD MLOAD DUP1 MLOAD SWAP1 PUSH1 0x1 PUSH1 0x1 PUSH1 0x40 SHL SUB DUP3 GT PUSH2 0x99B JUMPI DUP2 SWAP1 PUSH2 0x698 DUP3 PUSH2 0x68F PUSH1 0x2 DUP8 ADD SLOAD PUSH2 0x1002 JUMP JUMPDEST PUSH1 0x2 DUP8 ADD PUSH2 0x115C JUMP JUMPDEST PUSH1 0x20 SWAP1 PUSH1 0x1F DUP4 GT PUSH1 0x1 EQ PUSH2 0xABA JUMPI PUSH1 0x0 SWAP3 PUSH2 0xAAF JUMPI JUMPDEST POP POP DUP2 PUSH1 0x1 SHL SWAP2 PUSH1 0x0 NOT SWAP1 PUSH1 0x3 SHL SHR NOT AND OR PUSH1 0x2 DUP3 ADD SSTORE JUMPDEST PUSH1 0x60 DUP3 ADD MLOAD PUSH1 0x3 DUP3 ADD SSTORE PUSH1 0x80 DUP3 ADD MLOAD PUSH1 0x4 DUP3 ADD SSTORE PUSH1 0xA0 DUP3 ADD MLOAD PUSH1 0x5 DUP3 ADD SSTORE PUSH1 0xC0 DUP3 ADD MLOAD PUSH1 0x6 DUP3 ADD SSTORE PUSH1 0xE0 DUP3 ADD MLOAD DUP1 MLOAD SWAP1 PUSH1 0x1 PUSH1 0x1 PUSH1 0x40 SHL SUB DUP3 GT PUSH2 0x99B JUMPI DUP2 SWAP1 PUSH2 0x720 DUP3 PUSH2 0x717 PUSH1 0x7 DUP8 ADD SLOAD PUSH2 0x1002 JUMP JUMPDEST PUSH1 0x7 DUP8 ADD PUSH2 0x115C JUMP JUMPDEST PUSH1 0x20 SWAP1 PUSH1 0x1F DUP4 GT PUSH1 0x1 EQ PUSH2 0xA3D JUMPI PUSH1 0x0 SWAP3 PUSH2 0xA32 JUMPI JUMPDEST POP POP DUP2 PUSH1 0x1 SHL SWAP2 PUSH1 0x0 NOT SWAP1 PUSH1 0x3 SHL SHR NOT AND OR PUSH1 0x7 DUP3 ADD SSTORE JUMPDEST PUSH2 0x100 DUP3 ADD MLOAD DUP1 MLOAD SWAP1 PUSH1 0x1 PUSH1 0x1 PUSH1 0x40 SHL SUB DUP3 GT PUSH2 0x99B JUMPI PUSH2 0x77F DUP3 PUSH2 0x776 PUSH1 0x8 DUP7 ADD SLOAD PUSH2 0x1002 JUMP JUMPDEST PUSH1 0x8 DUP7 ADD PUSH2 0x115C JUMP JUMPDEST PUSH1 0x20 SWAP1 PUSH1 0x1F DUP4 GT PUSH1 0x1 EQ PUSH2 0x9BC JUMPI SWAP2 DUP1 PUSH2 0x160 SWAP5 SWAP3 PUSH1 0xB SWAP5 PUSH1 0x0 SWAP3 PUSH2 0x9B1 JUMPI JUMPDEST POP POP DUP2 PUSH1 0x1 SHL SWAP2 PUSH1 0x0 NOT SWAP1 PUSH1 0x3 SHL SHR NOT AND OR PUSH1 0x8 DUP3 ADD SSTORE JUMPDEST PUSH1 0x9 DUP2 ADD PUSH1 0x1 DUP1 PUSH1 0xA0 SHL SUB PUSH2 0x120 DUP7 ADD MLOAD AND PUSH12 0xFFFFFFFFFFFFFFFFFFFFFFFF PUSH1 0xA0 SHL DUP3 SLOAD AND OR SWAP1 SSTORE PUSH2 0x140 DUP5 ADD MLOAD PUSH1 0xA DUP3 ADD SSTORE ADD SWAP2 ADD MLOAD ISZERO ISZERO PUSH1 0xFF DUP1 NOT DUP4 SLOAD AND SWAP2 AND OR SWAP1 SSTORE PUSH1 0x3 SLOAD PUSH9 0x10000000000000000 DUP2 LT ISZERO PUSH2 0x99B JUMPI DUP1 PUSH1 0x1 PUSH2 0x820 SWAP3 ADD PUSH1 0x3 SSTORE PUSH2 0x110F JUMP JUMPDEST PUSH2 0x418 JUMPI PUSH1 0x1 PUSH1 0x1 PUSH1 0x40 SHL SUB DUP4 GT PUSH2 0x99B JUMPI PUSH2 0x846 DUP4 PUSH2 0x840 DUP4 SLOAD PUSH2 0x1002 JUMP JUMPDEST DUP4 PUSH2 0x115C JUMP JUMPDEST PUSH1 0x0 PUSH1 0x1F DUP5 GT PUSH1 0x1 EQ PUSH2 0x90C JUMPI SWAP2 DUP4 SWAP2 PUSH32 0x3608742147360757D9DF021EDAC8C347A5E035B88F7EE8F34AABD848F351887A SWAP6 SWAP5 PUSH1 0xC0 SWAP5 PUSH1 0x0 SWAP2 PUSH2 0x901 JUMPI JUMPDEST POP DUP4 PUSH1 0x1 SHL SWAP1 PUSH1 0x0 NOT DUP6 PUSH1 0x3 SHL SHR NOT AND OR SWAP1 SSTORE JUMPDEST PUSH2 0x8A3 PUSH1 0x1 SLOAD PUSH2 0x11B0 JUMP JUMPDEST PUSH1 0x1 SSTORE DUP2 PUSH1 0x40 MLOAD SWAP3 DUP4 SWAP3 DUP4 CALLDATACOPY DUP2 ADD PUSH1 0x0 DUP2 MSTORE SUB SWAP1 KECCAK256 SWAP4 DUP3 PUSH1 0x40 MLOAD SWAP4 DUP5 SWAP3 PUSH1 0xA0 DUP5 MSTORE DUP2 PUSH1 0xA0 DUP6 ADD MSTORE DUP5 DUP5 ADD CALLDATACOPY PUSH1 0x0 DUP3 DUP3 ADD DUP5 ADD MSTORE PUSH1 0x84 CALLDATALOAD PUSH1 0x20 DUP4 ADD MSTORE PUSH1 0xA4 CALLDATALOAD PUSH1 0x40 DUP4 ADD MSTORE CALLER PUSH1 0x60 DUP4 ADD MSTORE TIMESTAMP PUSH1 0x80 DUP4 ADD MSTORE PUSH1 0x1F ADD PUSH1 0x1F NOT AND DUP2 ADD SUB ADD SWAP1 LOG2 STOP JUMPDEST SWAP1 POP DUP3 ADD CALLDATALOAD DUP9 PUSH2 0x884 JUMP JUMPDEST DUP2 PUSH1 0x0 MSTORE PUSH1 0x20 PUSH1 0x0 KECCAK256 SWAP1 PUSH1 0x0 JUMPDEST PUSH1 0x1F NOT DUP7 AND DUP2 LT PUSH2 0x983 JUMPI POP SWAP2 PUSH1 0xC0 SWAP4 SWAP2 DUP6 SWAP4 PUSH32 0x3608742147360757D9DF021EDAC8C347A5E035B88F7EE8F34AABD848F351887A SWAP8 SWAP7 PUSH1 0x1F NOT DUP2 AND LT PUSH2 0x969 JUMPI JUMPDEST POP POP PUSH1 0x1 DUP4 DUP2 SHL ADD SWAP1 SSTORE PUSH2 0x898 JUMP JUMPDEST DUP4 ADD CALLDATALOAD PUSH1 0x0 NOT PUSH1 0x3 DUP7 SWAP1 SHL PUSH1 0xF8 AND SHR NOT AND SWAP1 SSTORE DUP8 DUP1 PUSH2 0x95A JUMP JUMPDEST SWAP1 SWAP2 PUSH1 0x20 PUSH1 0x1 DUP2 SWAP3 DUP6 DUP9 ADD CALLDATALOAD DUP2 SSTORE ADD SWAP4 ADD SWAP2 ADD PUSH2 0x919 JUMP JUMPDEST PUSH4 0x4E487B71 PUSH1 0xE0 SHL PUSH1 0x0 MSTORE PUSH1 0x41 PUSH1 0x4 MSTORE PUSH1 0x24 PUSH1 0x0 REVERT JUMPDEST ADD MLOAD SWAP1 POP DUP11 DUP1 PUSH2 0x79F JUMP JUMPDEST SWAP1 PUSH1 0x8 DUP5 ADD PUSH1 0x0 MSTORE PUSH1 0x20 PUSH1 0x0 KECCAK256 SWAP2 PUSH1 0x0 JUMPDEST PUSH1 0x1F NOT DUP6 AND DUP2 LT PUSH2 0xA1A JUMPI POP SWAP3 PUSH2 0x160 SWAP5 SWAP3 PUSH1 0x1 SWAP3 PUSH1 0xB SWAP6 DUP4 PUSH1 0x1F NOT DUP2 AND LT PUSH2 0xA01 JUMPI JUMPDEST POP POP POP DUP2 SHL ADD PUSH1 0x8 DUP3 ADD SSTORE PUSH2 0x7B7 JUMP JUMPDEST ADD MLOAD PUSH1 0x0 NOT PUSH1 0xF8 DUP5 PUSH1 0x3 SHL AND SHR NOT AND SWAP1 SSTORE DUP11 DUP1 DUP1 PUSH2 0x9F1 JUMP JUMPDEST SWAP2 SWAP3 PUSH1 0x20 PUSH1 0x1 DUP2 SWAP3 DUP7 DUP6 ADD MLOAD DUP2 SSTORE ADD SWAP5 ADD SWAP3 ADD PUSH2 0x9CD JUMP JUMPDEST ADD MLOAD SWAP1 POP DUP9 DUP1 PUSH2 0x736 JUMP JUMPDEST SWAP3 POP PUSH1 0x7 DUP5 ADD PUSH1 0x0 MSTORE PUSH1 0x20 PUSH1 0x0 KECCAK256 SWAP1 PUSH1 0x0 SWAP4 JUMPDEST PUSH1 0x1F NOT DUP5 AND DUP6 LT PUSH2 0xA94 JUMPI PUSH1 0x1 SWAP5 POP DUP4 PUSH1 0x1F NOT DUP2 AND LT PUSH2 0xA7B JUMPI JUMPDEST POP POP POP DUP2 SHL ADD PUSH1 0x7 DUP3 ADD SSTORE PUSH2 0x74E JUMP JUMPDEST ADD MLOAD PUSH1 0x0 NOT PUSH1 0xF8 DUP5 PUSH1 0x3 SHL AND SHR NOT AND SWAP1 SSTORE DUP9 DUP1 DUP1 PUSH2 0xA6B JUMP JUMPDEST DUP2 DUP2 ADD MLOAD DUP4 SSTORE PUSH1 0x20 SWAP5 DUP6 ADD SWAP5 PUSH1 0x1 SWAP1 SWAP4 ADD SWAP3 SWAP1 SWAP2 ADD SWAP1 PUSH2 0xA50 JUMP JUMPDEST ADD MLOAD SWAP1 POP DUP9 DUP1 PUSH2 0x6AE JUMP JUMPDEST SWAP3 POP PUSH1 0x2 DUP5 ADD PUSH1 0x0 MSTORE PUSH1 0x20 PUSH1 0x0 KECCAK256 SWAP1 PUSH1 0x0 SWAP4 JUMPDEST PUSH1 0x1F NOT DUP5 AND DUP6 LT PUSH2 0xB11 JUMPI PUSH1 0x1 SWAP5 POP DUP4 PUSH1 0x1F NOT DUP2 AND LT PUSH2 0xAF8 JUMPI JUMPDEST POP POP POP DUP2 SHL ADD PUSH1 0x2 DUP3 ADD SSTORE PUSH2 0x6C6 JUMP JUMPDEST ADD MLOAD PUSH1 0x0 NOT PUSH1 0xF8 DUP5 PUSH1 0x3 SHL AND SHR NOT AND SWAP1 SSTORE DUP9 DUP1 DUP1 PUSH2 0xAE8 JUMP JUMPDEST DUP2 DUP2 ADD MLOAD DUP4 SSTORE PUSH1 0x20 SWAP5 DUP6 ADD SWAP5 PUSH1 0x1 SWAP1 SWAP4 ADD SWAP3 SWAP1 SWAP2 ADD SWAP1 PUSH2 0xACD JUMP JUMPDEST ADD MLOAD SWAP1 POP DUP9 DUP1 PUSH2 0x64E JUMP JUMPDEST SWAP3 POP PUSH1 0x1 DUP5 ADD PUSH1 0x0 MSTORE PUSH1 0x20 PUSH1 0x0 KECCAK256 SWAP1 PUSH1 0x0 SWAP4 JUMPDEST PUSH1 0x1F NOT DUP5 AND DUP6 LT PUSH2 0xB8E JUMPI PUSH1 0x1 SWAP5 POP DUP4 PUSH1 0x1F NOT DUP2 AND LT PUSH2 0xB75 JUMPI JUMPDEST POP POP POP DUP2 SHL ADD PUSH1 0x1 DUP3 ADD SSTORE PUSH2 0x666 JUMP JUMPDEST ADD MLOAD PUSH1 0x0 NOT PUSH1 0xF8 DUP5 PUSH1 0x3 SHL AND SHR NOT AND SWAP1 SSTORE DUP9 DUP1 DUP1 PUSH2 0xB65 JUMP JUMPDEST DUP2 DUP2 ADD MLOAD DUP4 SSTORE PUSH1 0x20 SWAP5 DUP6 ADD SWAP5 PUSH1 0x1 SWAP1 SWAP4 ADD SWAP3 SWAP1 SWAP2 ADD SWAP1 PUSH2 0xB4A JUMP JUMPDEST ADD MLOAD SWAP1 POP DUP9 DUP1 PUSH2 0x5F1 JUMP JUMPDEST SWAP3 POP DUP4 PUSH1 0x0 MSTORE PUSH1 0x20 PUSH1 0x0 KECCAK256 SWAP1 PUSH1 0x0 SWAP4 JUMPDEST PUSH1 0x1F NOT DUP5 AND DUP6 LT PUSH2 0xC05 JUMPI PUSH1 0x1 SWAP5 POP DUP4 PUSH1 0x1F NOT DUP2 AND LT PUSH2 0xBEC JUMPI JUMPDEST POP POP POP DUP2 SHL ADD DUP2 SSTORE PUSH2 0x606 JUMP JUMPDEST ADD MLOAD PUSH1 0x0 NOT PUSH1 0xF8 DUP5 PUSH1 0x3 SHL AND SHR NOT AND SWAP1 SSTORE DUP9 DUP1 DUP1 PUSH2 0xBDF JUMP JUMPDEST DUP2 DUP2 ADD MLOAD DUP4 SSTORE PUSH1 0x20 SWAP5 DUP6 ADD SWAP5 PUSH1 0x1 SWAP1 SWAP4 ADD SWAP3 SWAP1 SWAP2 ADD SWAP1 PUSH2 0xBC4 JUMP JUMPDEST PUSH1 0x40 MLOAD PUSH3 0x461BCD PUSH1 0xE5 SHL DUP2 MSTORE PUSH1 0x20 PUSH1 0x4 DUP3 ADD MSTORE PUSH1 0x15 PUSH1 0x24 DUP3 ADD MSTORE PUSH21 0x5265636F726420616C726561647920657869737473 PUSH1 0x58 SHL PUSH1 0x44 DUP3 ADD MSTORE PUSH1 0x64 SWAP1 REVERT JUMPDEST PUSH1 0x40 MLOAD PUSH3 0x461BCD PUSH1 0xE5 SHL DUP2 MSTORE PUSH1 0x20 PUSH1 0x4 DUP3 ADD MSTORE PUSH1 0x14 PUSH1 0x24 DUP3 ADD MSTORE PUSH20 0x14DA1A5C1B595B9D081251081C995C5D5A5C9959 PUSH1 0x62 SHL PUSH1 0x44 DUP3 ADD MSTORE PUSH1 0x64 SWAP1 REVERT JUMPDEST CALLVALUE PUSH2 0x9D JUMPI PUSH1 0x20 CALLDATASIZE PUSH1 0x3 NOT ADD SLT PUSH2 0x9D JUMPI PUSH1 0x4 CALLDATALOAD PUSH1 0x1 PUSH1 0x1 PUSH1 0x40 SHL SUB DUP2 GT PUSH2 0x9D JUMPI CALLDATASIZE PUSH1 0x23 DUP3 ADD SLT ISZERO PUSH2 0x9D JUMPI CALLDATASIZE DUP2 PUSH1 0x4 ADD CALLDATALOAD SWAP2 PUSH1 0x24 ADD SWAP2 PUSH2 0xCDA SWAP3 PUSH2 0xFBC JUMP JUMPDEST PUSH1 0x40 MLOAD DUP2 DUP2 DUP1 SWAP4 MLOAD PUSH1 0x20 DUP2 SWAP4 ADD SWAP2 PUSH2 0xCF1 SWAP3 PUSH2 0xF37 JUMP JUMPDEST DUP2 ADD PUSH1 0x2 DUP2 MSTORE SUB PUSH1 0x20 ADD SWAP1 KECCAK256 PUSH2 0xD06 DUP2 PUSH2 0x103C JUMP JUMPDEST PUSH2 0xD12 PUSH1 0x1 DUP4 ADD PUSH2 0x103C JUMP JUMPDEST SWAP2 PUSH2 0xD1F PUSH1 0x2 DUP3 ADD PUSH2 0x103C JUMP JUMPDEST PUSH1 0x3 DUP3 ADD SLOAD SWAP2 PUSH1 0x4 DUP2 ADD SLOAD SWAP3 PUSH1 0x5 DUP3 ADD SLOAD SWAP1 PUSH1 0x6 DUP4 ADD SLOAD SWAP1 PUSH1 0x7 DUP5 ADD PUSH2 0xD44 SWAP1 PUSH2 0x103C JUMP JUMPDEST SWAP2 PUSH2 0xD51 PUSH1 0x8 DUP7 ADD PUSH2 0x103C JUMP JUMPDEST SWAP4 PUSH1 0x1 PUSH1 0xA0 SHL PUSH1 0x1 SWAP1 SUB PUSH1 0x9 DUP8 ADD SLOAD AND SWAP8 PUSH1 0xA DUP8 ADD SLOAD SWAP7 PUSH1 0xB ADD SLOAD PUSH1 0xFF AND SWAP8 PUSH1 0x40 MLOAD SWAP12 DUP13 SWAP12 DUP13 PUSH2 0x180 DUP1 SWAP2 MSTORE DUP14 ADD PUSH2 0xD88 SWAP2 PUSH2 0xF5A JUMP JUMPDEST DUP13 DUP2 SUB PUSH1 0x20 DUP15 ADD MSTORE PUSH2 0xD99 SWAP2 PUSH2 0xF5A JUMP JUMPDEST DUP12 DUP2 SUB PUSH1 0x40 DUP14 ADD MSTORE PUSH2 0xDAA SWAP2 PUSH2 0xF5A JUMP JUMPDEST SWAP4 PUSH1 0x60 DUP12 ADD MSTORE PUSH1 0x80 DUP11 ADD MSTORE PUSH1 0xA0 DUP10 ADD MSTORE PUSH1 0xC0 DUP9 ADD MSTORE DUP7 DUP2 SUB PUSH1 0xE0 DUP9 ADD MSTORE PUSH2 0xDD0 SWAP2 PUSH2 0xF5A JUMP JUMPDEST DUP6 DUP2 SUB PUSH2 0x100 DUP8 ADD MSTORE PUSH2 0xDE2 SWAP2 PUSH2 0xF5A JUMP JUMPDEST SWAP3 PUSH2 0x120 DUP6 ADD MSTORE PUSH2 0x140 DUP5 ADD MSTORE ISZERO ISZERO PUSH2 0x160 DUP4 ADD MSTORE SUB SWAP1 RETURN JUMPDEST CALLVALUE PUSH2 0x9D JUMPI PUSH1 0x20 DUP1 PUSH1 0x3 NOT CALLDATASIZE ADD SLT PUSH2 0x9D JUMPI PUSH1 0x3 SLOAD PUSH1 0x4 CALLDATALOAD DUP2 DUP2 GT ISZERO PUSH2 0xF32 JUMPI POP DUP1 JUMPDEST PUSH2 0xE27 DUP2 PUSH2 0x11BF JUMP JUMPDEST SWAP2 PUSH2 0xE35 PUSH1 0x40 MLOAD SWAP4 DUP5 PUSH2 0xF9B JUMP JUMPDEST DUP2 DUP4 MSTORE PUSH1 0x1F NOT PUSH2 0xE44 DUP4 PUSH2 0x11BF JUMP JUMPDEST ADD DUP5 PUSH1 0x0 JUMPDEST DUP3 DUP2 LT PUSH2 0xF23 JUMPI POP POP POP PUSH1 0x0 NOT DUP2 DUP2 ADD SWAP3 SWAP2 DUP1 DUP5 GT PUSH1 0x0 JUMPDEST DUP5 DUP2 LT PUSH2 0xEC6 JUMPI PUSH1 0x40 DUP1 MLOAD DUP10 DUP2 MSTORE DUP9 MLOAD DUP2 DUP12 ADD DUP2 SWAP1 MSTORE PUSH1 0x0 SWAP3 PUSH1 0x5 DUP3 SWAP1 SHL DUP4 ADD DUP2 ADD SWAP2 DUP12 DUP14 ADD SWAP2 DUP14 SWAP1 DUP6 ADD JUMPDEST DUP3 DUP8 LT PUSH2 0xE9A JUMPI DUP6 DUP6 SUB DUP7 RETURN JUMPDEST SWAP1 SWAP2 SWAP3 SWAP4 DUP3 DUP1 PUSH2 0xEB6 PUSH1 0x1 SWAP4 PUSH1 0x3F NOT DUP11 DUP3 SUB ADD DUP7 MSTORE DUP9 MLOAD PUSH2 0xF5A JUMP JUMPDEST SWAP7 ADD SWAP3 ADD SWAP7 ADD SWAP6 SWAP3 SWAP2 SWAP1 SWAP3 PUSH2 0xE8D JUMP JUMPDEST DUP2 PUSH2 0xF0D JUMPI DUP4 DUP2 DUP5 SUB ADD SWAP1 DUP7 DUP3 GT PUSH2 0xF0D JUMPI PUSH2 0xEED PUSH2 0xEE7 PUSH2 0xF08 SWAP4 PUSH2 0x110F JUMP JUMPDEST POP PUSH2 0x103C JUMP JUMPDEST PUSH2 0xEF7 DUP3 DUP11 PUSH2 0x11D6 JUMP JUMPDEST MSTORE PUSH2 0xF02 DUP2 DUP10 PUSH2 0x11D6 JUMP JUMPDEST POP PUSH2 0x11B0 JUMP JUMPDEST PUSH2 0xE61 JUMP JUMPDEST PUSH4 0x4E487B71 PUSH1 0xE0 SHL PUSH1 0x0 MSTORE PUSH1 0x11 PUSH1 0x4 MSTORE PUSH1 0x24 PUSH1 0x0 REVERT JUMPDEST PUSH1 0x60 DUP7 DUP3 ADD DUP4 ADD MSTORE DUP2 ADD PUSH2 0xE49 JUMP JUMPDEST PUSH2 0xE1E JUMP JUMPDEST PUSH1 0x0 JUMPDEST DUP4 DUP2 LT PUSH2 0xF4A JUMPI POP POP PUSH1 0x0 SWAP2 ADD MSTORE JUMP JUMPDEST DUP2 DUP2 ADD MLOAD DUP4 DUP3 ADD MSTORE PUSH1 0x20 ADD PUSH2 0xF3A JUMP JUMPDEST SWAP1 PUSH1 0x20 SWAP2 PUSH2 0xF73 DUP2 MLOAD DUP1 SWAP3 DUP2 DUP6 MSTORE DUP6 DUP1 DUP7 ADD SWAP2 ADD PUSH2 0xF37 JUMP JUMPDEST PUSH1 0x1F ADD PUSH1 0x1F NOT AND ADD ADD SWAP1 JUMP JUMPDEST PUSH2 0x180 DUP2 ADD SWAP1 DUP2 LT PUSH1 0x1 PUSH1 0x1 PUSH1 0x40 SHL SUB DUP3 GT OR PUSH2 0x99B JUMPI PUSH1 0x40 MSTORE JUMP JUMPDEST SWAP1 PUSH1 0x1F DUP1 NOT SWAP2 ADD AND DUP2 ADD SWAP1 DUP2 LT PUSH1 0x1 PUSH1 0x1 PUSH1 0x40 SHL SUB DUP3 GT OR PUSH2 0x99B JUMPI PUSH1 0x40 MSTORE JUMP JUMPDEST SWAP3 SWAP2 SWAP3 PUSH1 0x1 PUSH1 0x1 PUSH1 0x40 SHL SUB DUP3 GT PUSH2 0x99B JUMPI PUSH1 0x40 MLOAD SWAP2 PUSH2 0xFE5 PUSH1 0x1F DUP3 ADD PUSH1 0x1F NOT AND PUSH1 0x20 ADD DUP5 PUSH2 0xF9B JUMP JUMPDEST DUP3 SWAP5 DUP2 DUP5 MSTORE DUP2 DUP4 ADD GT PUSH2 0x9D JUMPI DUP3 DUP2 PUSH1 0x20 SWAP4 DUP5 PUSH1 0x0 SWAP7 ADD CALLDATACOPY ADD ADD MSTORE JUMP JUMPDEST SWAP1 PUSH1 0x1 DUP3 DUP2 SHR SWAP3 AND DUP1 ISZERO PUSH2 0x1032 JUMPI JUMPDEST PUSH1 0x20 DUP4 LT EQ PUSH2 0x101C JUMPI JUMP JUMPDEST PUSH4 0x4E487B71 PUSH1 0xE0 SHL PUSH1 0x0 MSTORE PUSH1 0x22 PUSH1 0x4 MSTORE PUSH1 0x24 PUSH1 0x0 REVERT JUMPDEST SWAP2 PUSH1 0x7F AND SWAP2 PUSH2 0x1011 JUMP JUMPDEST SWAP1 PUSH1 0x40 MLOAD SWAP2 DUP3 PUSH1 0x0 DUP3 SLOAD SWAP3 PUSH2 0x1050 DUP5 PUSH2 0x1002 JUMP JUMPDEST SWAP1 DUP2 DUP5 MSTORE PUSH1 0x1 SWAP5 DUP6 DUP2 AND SWAP1 DUP2 PUSH1 0x0 EQ PUSH2 0x10BF JUMPI POP PUSH1 0x1 EQ PUSH2 0x107C JUMPI JUMPDEST POP POP PUSH2 0x107A SWAP3 POP SUB DUP4 PUSH2 0xF9B JUMP JUMPDEST JUMP JUMPDEST SWAP1 SWAP4 SWAP2 POP PUSH1 0x0 MSTORE PUSH1 0x20 SWAP1 DUP2 PUSH1 0x0 KECCAK256 SWAP4 PUSH1 0x0 SWAP2 JUMPDEST DUP2 DUP4 LT PUSH2 0x10A7 JUMPI POP POP PUSH2 0x107A SWAP4 POP DUP3 ADD ADD CODESIZE DUP1 PUSH2 0x106C JUMP JUMPDEST DUP6 SLOAD DUP9 DUP5 ADD DUP6 ADD MSTORE SWAP5 DUP6 ADD SWAP5 DUP8 SWAP5 POP SWAP2 DUP4 ADD SWAP2 PUSH2 0x108F JUMP JUMPDEST SWAP2 POP POP PUSH2 0x107A SWAP5 POP PUSH1 0x20 SWAP3 POP PUSH1 0xFF NOT AND DUP3 DUP5 ADD MSTORE ISZERO ISZERO PUSH1 0x5 SHL DUP3 ADD ADD CODESIZE DUP1 PUSH2 0x106C JUMP JUMPDEST SWAP2 DUP2 PUSH1 0x1F DUP5 ADD SLT ISZERO PUSH2 0x9D JUMPI DUP3 CALLDATALOAD SWAP2 PUSH1 0x1 PUSH1 0x1 PUSH1 0x40 SHL SUB DUP4 GT PUSH2 0x9D JUMPI PUSH1 0x20 DUP4 DUP2 DUP7 ADD SWAP6 ADD ADD GT PUSH2 0x9D JUMPI JUMP JUMPDEST PUSH1 0x3 SLOAD DUP2 LT ISZERO PUSH2 0x1146 JUMPI PUSH1 0x3 PUSH1 0x0 MSTORE PUSH32 0xC2575A0E9E593C00F959F8C92F12DB2869C3395A3B0502D05E2516446F71F85B ADD SWAP1 PUSH1 0x0 SWAP1 JUMP JUMPDEST PUSH4 0x4E487B71 PUSH1 0xE0 SHL PUSH1 0x0 MSTORE PUSH1 0x32 PUSH1 0x4 MSTORE PUSH1 0x24 PUSH1 0x0 REVERT JUMPDEST SWAP1 PUSH1 0x1F DUP2 GT PUSH2 0x116A JUMPI POP POP POP JUMP JUMPDEST PUSH1 0x0 SWAP2 DUP3 MSTORE PUSH1 0x20 DUP3 KECCAK256 SWAP1 PUSH1 0x20 PUSH1 0x1F DUP6 ADD PUSH1 0x5 SHR DUP4 ADD SWAP5 LT PUSH2 0x11A6 JUMPI JUMPDEST PUSH1 0x1F ADD PUSH1 0x5 SHR ADD SWAP2 JUMPDEST DUP3 DUP2 LT PUSH2 0x119B JUMPI POP POP POP JUMP JUMPDEST DUP2 DUP2 SSTORE PUSH1 0x1 ADD PUSH2 0x118F JUMP JUMPDEST SWAP1 SWAP3 POP DUP3 SWAP1 PUSH2 0x1186 JUMP JUMPDEST PUSH1 0x0 NOT DUP2 EQ PUSH2 0xF0D JUMPI PUSH1 0x1 ADD SWAP1 JUMP JUMPDEST PUSH1 0x1 PUSH1 0x1 PUSH1 0x40 SHL SUB DUP2 GT PUSH2 0x99B JUMPI PUSH1 0x5 SHL PUSH1 0x20 ADD SWAP1 JUMP JUMPDEST DUP1 MLOAD DUP3 LT ISZERO PUSH2 0x1146 JUMPI PUSH1 0x20 SWAP2 PUSH1 0x5 SHL ADD ADD SWAP1 JUMP INVALID LOG2 PUSH5 0x6970667358 0x22 SLT KECCAK256 PUSH17 0x1D9E0C1D29299F8182290AC97E4B1D3A5B SLT DUP4 SWAP6 0x5D SAR SWAP5 PUSH20 0x56374FE5D9F93964736F6C634300081300330000 "},"methodIdentifiers":{"allShipmentIds(uint256)":"7792d35f","getEmission(string)":"88512699","getRecentShipmentIds(uint256)":"0e920e67","getRecordCount()":"ca267f28","owner()":"8da5cb5b","recordCount()":"900407bc","recordEmission(string,string,string,uint256,uint256,uint256,uint256,string,string)":"5b6c7c1e","records(string)":"541e771d","verifyRecord(string)":"c40e5824"}}}}}