{
  "_format": "hh-sol-artifact-1",
  "contractName": "CBAMRegistry",
  "sourceName": "src/CBAMRegistry.sol",
  "abi": [
    {
      "inputs": [],
      "stateMutability": "nonpayable",
      "type": "constructor"
    },
    {
      "anonymous": false,
      "inputs": [
        {
          "indexed": true,
          "internalType": "string",
          "name": "shipmentId",
          "type": "string"
        },
        {
          "indexed": false,
          "internalType": "string",
          "name": "exporter",
          "type": "string"
        },
        {
          "indexed": false,
          "internalType": "uint256",
          "name": "totalCO2Kg",
          "type": "uint256"
        },
        {
          "indexed": false,
          "internalType": "uint256",
          "name": "cbamTaxEurCents",
          "type": "uint256"
        },
        {
          "indexed": false,
          "internalType": "address",
          "name": "recordedBy",
          "type": "address"
        },
        {
          "indexed": false,
          "internalType": "uint256",
          "name": "timestamp",
          "type": "uint256"
        }
      ],
      "name": "EmissionRecorded",
      "type": "event"
    },
    {
      "inputs": [
        {
          "internalType": "uint256",
          "name": "",
          "type": "uint256"
        }
      ],
      "name": "allShipmentIds",
      "outputs": [
        {
          "internalType": "string",
          "name": "",
          "type": "string"
        }
      ],
      "stateMutability": "view",
      "type": "function"
    },
    {
      "inputs": [
        {
          "internalType": "string",
          "name": "_shipmentId",
          "type": "string"
        }
      ],
      "name": "getEmission",
      "outputs": [
        {
          "internalType": "string",
          "name": "exporter",
          "type": "string"
        },
        {
          "internalType": "string",
          "name": "product",
          "type": "string"
        },
        {
          "internalType": "uint256",
          "name": "weightTonnes",
          "type": "uint256"
        },
        {
          "internalType": "uint256",
          "name": "totalCO2Kg",
          "type": "uint256"
        },
        {
          "internalType": "uint256",
          "name": "cbamTaxEurCents",
          "type": "uint256"
        },
        {
          "internalType": "uint256",
          "name": "etsPriceEurCents",
          "type": "uint256"
        },
        {
          "internalType": "string",
          "name": "originPort",
          "type": "string"
        },
        {
          "internalType": "string",
          "name": "destinationPort",
          "type": "string"
        },
        {
          "internalType": "address",
          "name": "recordedBy",
          "type": "address"
        },
        {
          "internalType": "uint256",
          "name": "timestamp",
          "type": "uint256"
        }
      ],
      "stateMutability": "view",
      "type": "function"
    },
    {
      "inputs": [
        {
          "internalType": "uint256",
          "name": "count",
          "type": "uint256"
        }
      ],
      "name": "getRecentShipmentIds",
      "outputs": [
        {
          "internalType": "string[]",
          "name": "",
          "type": "string[]"
        }
      ],
      "stateMutability": "view",
      "type": "function"
    },
    {
      "inputs": [],
      "name": "getRecordCount",
      "outputs": [
        {
          "internalType": "uint256",
          "name": "",
          "type": "uint256"
        }
      ],
      "stateMutability": "view",
      "type": "function"
    },
    {
      "inputs": [],
      "name": "owner",
      "outputs": [
        {
          "internalType": "address",
          "name": "",
          "type": "address"
        }
      ],
      "stateMutability": "view",
      "type": "function"
    },
    {
      "inputs": [],
      "name": "recordCount",
      "outputs": [
        {
          "internalType": "uint256",
          "name": "",
          "type": "uint256"
        }
      ],
      "stateMutability": "view",
      "type": "function"
    },
    {
      "inputs": [
        {
          "internalType": "string",
          "name": "_shipmentId",
          "type": "string"
        },
        {
          "internalType": "string",
          "name": "_exporter",
          "type": "string"
        },
        {
          "internalType": "string",
          "name": "_product",
          "type": "string"
        },
        {
          "internalType": "uint256",
          "name": "_weightTonnes",
          "type": "uint256"
        },
        {
          "internalType": "uint256",
          "name": "_totalCO2Kg",
          "type": "uint256"
        },
        {
          "internalType": "uint256",
          "name": "_cbamTaxEurCents",
          "type": "uint256"
        },
        {
          "internalType": "uint256",
          "name": "_etsPriceEurCents",
          "type": "uint256"
        },
        {
          "internalType": "string",
          "name": "_originPort",
          "type": "string"
        },
        {
          "internalType": "string",
          "name": "_destinationPort",
          "type": "string"
        }
      ],
      "name": "recordEmission",
      "outputs": [],
      "stateMutability": "nonpayable",
      "type": "function"
    },
    {
      "inputs": [
        {
          "internalType": "string",
          "name": "",
          "type": "string"
        }
      ],
      "name": "records",
      "outputs": [
        {
          "internalType": "string",
          "name": "shipmentId",
          "type": "string"
        },
        {
          "internalType": "string",
          "name": "exporter",
          "type": "string"
        },
        {
          "internalType": "string",
          "name": "product",
          "type": "string"
        },
        {
          "internalType": "uint256",
          "name": "weightTonnes",
          "type": "uint256"
        },
        {
          "internalType": "uint256",
          "name": "totalCO2Kg",
          "type": "uint256"
        },
        {
          "internalType": "uint256",
          "name": "cbamTaxEurCents",
          "type": "uint256"
        },
        {
          "internalType": "uint256",
          "name": "etsPriceEurCents",
          "type": "uint256"
        },
        {
          "internalType": "string",
          "name": "originPort",
          "type": "string"
        },
        {
          "internalType": "string",
          "name": "destinationPort",
          "type": "string"
        },
        {
          "internalType": "address",
          "name": "recordedBy",
          "type": "address"
        },
        {
          "internalType": "uint256",
          "name": "timestamp",
          "type": "uint256"
        },
        {
          "internalType": "bool",
          "name": "exists",
          "type": "bool"
        }
      ],
      "stateMutability": "view",
      "type": "function"
    },
    {
      "inputs": [
        {
          "internalType": "string",
          "name": "_shipmentId",
          "type": "string"
        }
      ],
      "name": "verifyRecord",
      "outputs": [
        {
          "internalType": "bool",
          "name": "exists",
          "type": "bool"
        },
        {
          "internalType": "uint256",
          "name": "timestamp",
          "type": "uint256"
        },
        {
          "internalType": "address",
          "name": "recordedBy",
          "type": "address"
        }
      ],
      "stateMutability": "view",
      "type": "function"
    }
  ],
  "bytecode": "0x6080806040523461002b57600080546001600160a01b0319163317815560015561122090816100318239f35b600080fdfe6080604052600436101561001257600080fd5b60003560e01c80630e920e6714610dfb578063541e771d14610c995780635b6c7c1e1461042e5780637792d35f146103c957806388512699146101dd5780638da5cb5b146101b4578063900407bc1461007f578063c40e5824146100a25763ca267f281461007f57600080fd5b3461009d57600036600319011261009d576020600154604051908152f35b600080fd5b3461009d57602036600319011261009d576004356001600160401b03811161009d5761016060206100d960609336906004016110e2565b919082604051938492833781016002815203019020604051906100fb82610f7f565b6101048161103c565b82526101126001820161103c565b60208301526101236002820161103c565b604083015260038101548483015260048101546080830152600581015460a0830152600681015460c083015261015b6007820161103c565b60e083015261016c6008820161103c565b61010083015260018060a01b03600982015416918261012082015260ff600b600a84015493846101408501520154161515938491015260405192835260208301526040820152f35b3461009d57600036600319011261009d576000546040516001600160a01b039091168152602090f35b3461009d57602036600319011261009d576004356001600160401b03811161009d5761020d9036906004016110e2565b9060ff600b6040518484823760208186810160028152030190200154161561039157602090826040519384928337810160028152030190206101406040519161025583610f7f565b61025e8161103c565b835261026c6001820161103c565b602084015261027d6002820161103c565b60408401526003810154606084015260048101546080840152600581015460a0840152600681015460c08401526102b66007820161103c565b60e08401526102c76008820161103c565b908161010085015261038060018060a01b03600983015416928361012087015260ff600b600a8501549485888a015201541615156101608701526103726020870151966040810151606082015191608081015160a08201519061035060e060c0850151940151946103426040519e8f9e8f8181520190610f5a565b8d810360208f015290610f5a565b9460408c015260608b015260808a015260a089015287820360c0890152610f5a565b9085820360e0870152610f5a565b916101008401526101208301520390f35b60405162461bcd60e51b815260206004820152601060248201526f149958dbdc99081b9bdd08199bdd5b9960821b6044820152606490fd5b3461009d57602036600319011261009d5760043560035481101561009d576103f09061110f565b610418576104006104149161103c565b604051918291602083526020830190610f5a565b0390f35b634e487b7160e01b600052600060045260246000fd5b3461009d5761012036600319011261009d576004356001600160401b03811161009d5761045f9036906004016110e2565b6024356001600160401b03811161009d5761047e9036906004016110e2565b9190926044356001600160401b03811161009d576104a09036906004016110e2565b9060e4356001600160401b03811161009d576104c09036906004016110e2565b90610104356001600160401b03811161009d576104e19036906004016110e2565b9290938715610c5d5760ff600b6040518a8a823760028b8201526020818c810103019020015416610c20576040519561051987610f7f565b610524368a8a610fbc565b8752610531368b8d610fbc565b6020880152369061054192610fbc565b60408601526064356060860152608435608086015260a43560a086015260c43560c0860152369061057192610fbc565b60e0840152369061058192610fbc565b6101008201523361012082015242610140820152600161016082015260405183838237808481016002815203602001902081518051906001600160401b03821161099b5781906105db826105d58654611002565b8661115c565b602090601f8311600114610bb457600092610ba9575b50508160011b916000199060031b1c19161781555b60208201518051906001600160401b03821161099b5781906106388261062f6001870154611002565b6001870161115c565b602090601f8311600114610b3757600092610b2c575b50508160011b916000199060031b1c19161760018201555b60408201518051906001600160401b03821161099b5781906106988261068f6002870154611002565b6002870161115c565b602090601f8311600114610aba57600092610aaf575b50508160011b916000199060031b1c19161760028201555b606082015160038201556080820151600482015560a0820151600582015560c0820151600682015560e08201518051906001600160401b03821161099b578190610720826107176007870154611002565b6007870161115c565b602090601f8311600114610a3d57600092610a32575b50508160011b916000199060031b1c19161760078201555b6101008201518051906001600160401b03821161099b5761077f826107766008860154611002565b6008860161115c565b602090601f83116001146109bc5791806101609492600b946000926109b1575b50508160011b916000199060031b1c19161760088201555b6009810160018060a01b03610120860151166bffffffffffffffffffffffff60a01b825416179055610140840151600a82015501910151151560ff801983541691161790556003546801000000000000000081101561099b57806001610820920160035561110f565b610418576001600160401b03831161099b57610846836108408354611002565b8361115c565b6000601f841160011461090c579183917f3608742147360757d9df021edac8c347a5e035b88f7ee8f34aabd848f351887a959460c094600091610901575b508360011b906000198560031b1c19161790555b6108a36001546111b0565b600155816040519283928337810160008152039020938260405193849260a084528160a0850152848401376000828201840152608435602083015260a4356040830152336060830152426080830152601f01601f19168101030190a2005b905082013588610884565b8160005260206000209060005b601f198616811061098357509160c0939185937f3608742147360757d9df021edac8c347a5e035b88f7ee8f34aabd848f351887a9796601f19811610610969575b5050600183811b019055610898565b830135600019600386901b60f8161c19169055878061095a565b90916020600181928588013581550193019101610919565b634e487b7160e01b600052604160045260246000fd5b015190508a8061079f565b906008840160005260206000209160005b601f1985168110610a1a5750926101609492600192600b9583601f19811610610a01575b505050811b0160088201556107b7565b015160001960f88460031b161c191690558a80806109f1565b919260206001819286850151815501940192016109cd565b015190508880610736565b9250600784016000526020600020906000935b601f1984168510610a94576001945083601f19811610610a7b575b505050811b01600782015561074e565b015160001960f88460031b161c19169055888080610a6b565b81810151835560209485019460019093019290910190610a50565b0151905088806106ae565b9250600284016000526020600020906000935b601f1984168510610b11576001945083601f19811610610af8575b505050811b0160028201556106c6565b015160001960f88460031b161c19169055888080610ae8565b81810151835560209485019460019093019290910190610acd565b01519050888061064e565b9250600184016000526020600020906000935b601f1984168510610b8e576001945083601f19811610610b75575b505050811b016001820155610666565b015160001960f88460031b161c19169055888080610b65565b81810151835560209485019460019093019290910190610b4a565b0151905088806105f1565b9250836000526020600020906000935b601f1984168510610c05576001945083601f19811610610bec575b505050811b018155610606565b015160001960f88460031b161c19169055888080610bdf565b81810151835560209485019460019093019290910190610bc4565b60405162461bcd60e51b81526020600482015260156024820152745265636f726420616c72656164792065786973747360581b6044820152606490fd5b60405162461bcd60e51b815260206004820152601460248201527314da1a5c1b595b9d081251081c995c5d5a5c995960621b6044820152606490fd5b3461009d57602036600319011261009d576004356001600160401b03811161009d573660238201121561009d573681600401359160240191610cda92610fbc565b6040518181809351602081930191610cf192610f37565b810160028152036020019020610d068161103c565b610d126001830161103c565b91610d1f6002820161103c565b60038201549160048101549260058201549060068301549060078401610d449061103c565b91610d516008860161103c565b93600160a01b6001900360098701541697600a87015496600b015460ff16976040519b8c9b8c6101808091528d01610d8891610f5a565b8c810360208e0152610d9991610f5a565b8b810360408d0152610daa91610f5a565b9360608b015260808a015260a089015260c088015286810360e0880152610dd091610f5a565b858103610100870152610de291610f5a565b9261012085015261014084015215156101608301520390f35b3461009d5760208060031936011261009d5760035460043581811115610f325750805b610e27816111bf565b91610e356040519384610f9b565b818352601f19610e44836111bf565b018460005b828110610f2357505050600019818101929180841160005b848110610ec657604080518981528851818b01819052600092600582901b83018101918b8d01918d9085015b828710610e9a5785850386f35b909192938280610eb6600193603f198a82030186528851610f5a565b9601920196019592919092610e8d565b81610f0d57838184030190868211610f0d57610eed610ee7610f089361110f565b5061103c565b610ef7828a6111d6565b52610f0281896111d6565b506111b0565b610e61565b634e487b7160e01b600052601160045260246000fd5b60608682018301528101610e49565b610e1e565b60005b838110610f4a5750506000910152565b8181015183820152602001610f3a565b90602091610f7381518092818552858086019101610f37565b601f01601f1916010190565b61018081019081106001600160401b0382111761099b57604052565b90601f801991011681019081106001600160401b0382111761099b57604052565b9291926001600160401b03821161099b5760405191610fe5601f8201601f191660200184610f9b565b82948184528183011161009d578281602093846000960137010152565b90600182811c92168015611032575b602083101461101c57565b634e487b7160e01b600052602260045260246000fd5b91607f1691611011565b906040519182600082549261105084611002565b9081845260019485811690816000146110bf575060011461107c575b505061107a92500383610f9b565b565b9093915060005260209081600020936000915b8183106110a757505061107a9350820101388061106c565b8554888401850152948501948794509183019161108f565b91505061107a94506020925060ff191682840152151560051b820101388061106c565b9181601f8401121561009d578235916001600160401b03831161009d576020838186019501011161009d57565b6003548110156111465760036000527fc2575a0e9e593c00f959f8c92f12db2869c3395a3b0502d05e2516446f71f85b0190600090565b634e487b7160e01b600052603260045260246000fd5b90601f811161116a57505050565b600091825260208220906020601f850160051c830194106111a6575b601f0160051c01915b82811061119b57505050565b81815560010161118f565b9092508290611186565b6000198114610f0d5760010190565b6001600160401b03811161099b5760051b60200190565b80518210156111465760209160051b01019056fea2646970667358221220701d9e0c1d29299f8182290ac97e4b1d3a5b1283955d1d947356374fe5d9f93964736f6c63430008130033",
  "linkReferences": {},
  "deployedLinkReferences": {}
}